{
  "contractName": "VRToken",
  "abi": [
    {
      "inputs": [
        {
          "internalType": "address",
          "name": "_token",
          "type": "address"
        }
      ],
      "name": "addExistingToken",
      "outputs": [],
      "stateMutability": "nonpayable",
      "type": "function"
    },
    {
      "inputs": [
        {
          "internalType": "address",
          "name": "_newToken",
          "type": "address"
        }
      ],
      "name": "isDuplicate",
      "outputs": [
        {
          "internalType": "bool",
          "name": "",
          "type": "bool"
        }
      ],
      "stateMutability": "view",
      "type": "function"
    },
    {
      "inputs": [
        {
          "internalType": "address",
          "name": "_asset1",
          "type": "address"
        },
        {
          "internalType": "address",
          "name": "_asset2",
          "type": "address"
        }
      ],
      "name": "compareVRAssets",
      "outputs": [
        {
          "internalType": "bool",
          "name": "",
          "type": "bool"
        }
      ],
      "stateMutability": "view",
      "type": "function"
    }
  ],
  "bytecode": "0x608060405234801561001057600080fd5b50610408806100206000396000f3fe608060405234801561001057600080fd5b50600436106100415760003560e01c8063469ce95e1461004657806350f5ef2e1461007657806356061315146100a6575b600080fd5b610060600480360381019061005b919061027f565b6100c2565b60405161006d91906102c7565b60405180910390f35b610090600480360381019061008b91906102e2565b61014c565b60405161009d91906102c7565b60405180910390f35b6100c060048036038101906100bb919061027f565b6101b6565b005b600080600090505b6000805490508110156101415761011f600082815481106100ee576100ed610322565b5b9060005260206000200160009054906101000a900473ffffffffffffffffffffffffffffffffffffffff168461014c565b1561012e576001915050610147565b80806101399061038a565b9150506100ca565b50600090505b919050565b6000807f3100000000000000000000000000000000000000000000000000000000000000905060007f320000000000000000000000000000000000000000000000000000000000000090508082036101a9576001925050506101b0565b6000925050505b92915050565b6000819080600181540180825580915050600190039060005260206000200160009091909190916101000a81548173ffffffffffffffffffffffffffffffffffffffff021916908373ffffffffffffffffffffffffffffffffffffffff16021790555050565b600080fd5b600073ffffffffffffffffffffffffffffffffffffffff82169050919050565b600061024c82610221565b9050919050565b61025c81610241565b811461026757600080fd5b50565b60008135905061027981610253565b92915050565b6000602082840312156102955761029461021c565b5b60006102a38482850161026a565b91505092915050565b60008115159050919050565b6102c1816102ac565b82525050565b60006020820190506102dc60008301846102b8565b92915050565b600080604083850312156102f9576102f861021c565b5b60006103078582860161026a565b92505060206103188582860161026a565b9150509250929050565b7f4e487b7100000000000000000000000000000000000000000000000000000000600052603260045260246000fd5b7f4e487b7100000000000000000000000000000000000000000000000000000000600052601160045260246000fd5b6000819050919050565b600061039582610380565b91507fffffffffffffffffffffffffffffffffffffffffffffffffffffffffffffffff82036103c7576103c6610351565b5b60018201905091905056fea2646970667358221220faeaa66910354b88092504e8f3c0142dd92dc6a0cdf969358ce7fcb4055dae6264736f6c63430008110033",
  "immutableReferences": {},
  "source": "//SPDX // SPDX-License-Identifier: GPL-3.0\n\npragma solidity 0.8.17;\n\n\ncontract VRToken  {\n    // code to define the token's properties\n    address[] existingTokens;\n\n    //create a constructor\n\n\n    function addExistingToken(address _token) public {\n        existingTokens.push(_token);\n    }\n\n    function isDuplicate(address _newToken) public view returns (bool) {\n        for (uint i = 0; i < existingTokens.length; i++) {\n            if (compareVRAssets(existingTokens[i], _newToken)) {\n                return true;\n            }\n        }\n        return false;\n    }\n    // other functions\n\n   function compareVRAssets(address _asset1, address _asset2) public view returns (bool) {\n        // Compare the VR assets' hashes\n        bytes32 hash1 = \"1\" ;\n        bytes32 hash2 = \"2\" ;\n        if (hash1 == hash2) {\n            return true;\n        } else {\n            return false;\n        }\n    }\n}\n\n",
  "sourcePath": "/home/laukey/Documents/blockchain/copyright-truffle/contracts/CheckifExists.sol",
  "compiler": {
    "name": "solc",
    "version": "0.8.17+commit.8df45f5f.Emscripten.clang"
  },
  "schemaVersion": "3.4.11",
  "updatedAt": "2023-01-30T20:25:56.800Z",
  "devdoc": {
    "kind": "dev",
    "methods": {},
    "version": 1
  },
  "userdoc": {
    "kind": "user",
    "methods": {},
    "version": 1
  }
}