{
  "contractName": "VRToken",
  "abi": [
    {
      "inputs": [
        {
          "internalType": "address",
          "name": "_token",
          "type": "address"
        }
      ],
      "name": "addExistingToken",
      "outputs": [],
      "stateMutability": "nonpayable",
      "type": "function"
    },
    {
      "inputs": [
        {
          "internalType": "address",
          "name": "_newToken",
          "type": "address"
        }
      ],
      "name": "isDuplicate",
      "outputs": [
        {
          "internalType": "bool",
          "name": "",
          "type": "bool"
        }
      ],
      "stateMutability": "view",
      "type": "function"
    },
    {
      "inputs": [
        {
          "internalType": "address",
          "name": "_asset1",
          "type": "address"
        },
        {
          "internalType": "address",
          "name": "_asset2",
          "type": "address"
        }
      ],
      "name": "compareVRAssets",
      "outputs": [
        {
          "internalType": "bool",
          "name": "",
          "type": "bool"
        }
      ],
      "stateMutability": "pure",
      "type": "function"
    }
  ],
  "bytecode": "0x608060405234801561001057600080fd5b5061052e806100206000396000f3fe608060405234801561001057600080fd5b50600436106100415760003560e01c8063469ce95e1461004657806350f5ef2e1461007657806356061315146100a6575b600080fd5b610060600480360381019061005b9190610328565b6100c2565b60405161006d9190610370565b60405180910390f35b610090600480360381019061008b919061038b565b61014c565b60405161009d9190610370565b60405180910390f35b6100c060048036038101906100bb9190610328565b61025f565b005b600080600090505b6000805490508110156101415761011f600082815481106100ee576100ed6103cb565b5b9060005260206000200160009054906101000a900473ffffffffffffffffffffffffffffffffffffffff168461014c565b1561012e576001915050610147565b808061013990610433565b9150506100ca565b50600090505b919050565b60008073ffffffffffffffffffffffffffffffffffffffff168373ffffffffffffffffffffffffffffffffffffffff16141580156101b75750600073ffffffffffffffffffffffffffffffffffffffff168273ffffffffffffffffffffffffffffffffffffffff1614155b6101f6576040517f08c379a00000000000000000000000000000000000000000000000000000000081526004016101ed906104d8565b60405180910390fd5b60007f3100000000000000000000000000000000000000000000000000000000000000905060007f3200000000000000000000000000000000000000000000000000000000000000905080820361025257600192505050610259565b6000925050505b92915050565b6000819080600181540180825580915050600190039060005260206000200160009091909190916101000a81548173ffffffffffffffffffffffffffffffffffffffff021916908373ffffffffffffffffffffffffffffffffffffffff16021790555050565b600080fd5b600073ffffffffffffffffffffffffffffffffffffffff82169050919050565b60006102f5826102ca565b9050919050565b610305816102ea565b811461031057600080fd5b50565b600081359050610322816102fc565b92915050565b60006020828403121561033e5761033d6102c5565b5b600061034c84828501610313565b91505092915050565b60008115159050919050565b61036a81610355565b82525050565b60006020820190506103856000830184610361565b92915050565b600080604083850312156103a2576103a16102c5565b5b60006103b085828601610313565b92505060206103c185828601610313565b9150509250929050565b7f4e487b7100000000000000000000000000000000000000000000000000000000600052603260045260246000fd5b7f4e487b7100000000000000000000000000000000000000000000000000000000600052601160045260246000fd5b6000819050919050565b600061043e82610429565b91507fffffffffffffffffffffffffffffffffffffffffffffffffffffffffffffffff82036104705761046f6103fa565b5b600182019050919050565b600082825260208201905092915050565b7f496e76616c696420616464726573730000000000000000000000000000000000600082015250565b60006104c2600f8361047b565b91506104cd8261048c565b602082019050919050565b600060208201905081810360008301526104f1816104b5565b905091905056fea264697066735822122042e37fd65d75357df9762643fec050166f91949ecf80f47a68b1e88cd1488e1c64736f6c63430008110033",
  "immutableReferences": {},
  "source": "//SPDX // SPDX-License-Identifier: GPL-3.0\n\npragma solidity 0.8.17;\n\n\ncontract VRToken  {\n    // code to define the token's properties\n    address[] existingTokens;\n\n    //create a constructor\n\n\n    function addExistingToken(address _token) public {\n        existingTokens.push(_token);\n    }\n\n    function isDuplicate(address _newToken) public view returns (bool) {\n        for (uint i = 0; i < existingTokens.length; i++) {\n            if (compareVRAssets(existingTokens[i], _newToken)) {\n                return true;\n            }\n        }\n        return false;\n    }\n    // other functions\n\n   function compareVRAssets(address _asset1, address _asset2) public pure returns (bool) {\n        // Compare the VR assets' hashes\n       require(_asset1 != address(0) && _asset2 != address(0), \"Invalid address\");\n        bytes32 hash1 = \"1\" ;\n        bytes32 hash2 = \"2\" ;\n        if (hash1 == hash2) {\n            return true;\n        } else {\n            return false;\n        }\n    }\n}\n\n",
  "sourcePath": "/home/laukey/Documents/blockchain/copyright-truffle/contracts/CheckifExists.sol",
  "compiler": {
    "name": "solc",
    "version": "0.8.17+commit.8df45f5f.Emscripten.clang"
  },
  "schemaVersion": "3.4.11",
  "updatedAt": "2023-01-30T20:27:50.282Z",
  "devdoc": {
    "kind": "dev",
    "methods": {},
    "version": 1
  },
  "userdoc": {
    "kind": "user",
    "methods": {},
    "version": 1
  }
}